{"abi":[{"type":"constructor","inputs":[{"name":"_scale","type":"uint256","internalType":"uint256"},{"name":"_mailbox","type":"address","internalType":"address"}],"stateMutability":"nonpayable"},{"type":"receive","stateMutability":"payable"},{"type":"function","name":"PACKAGE_VERSION","inputs":[],"outputs":[{"name":"","type":"string","internalType":"string"}],"stateMutability":"view"},{"type":"function","name":"addBridge","inputs":[{"name":"domain","type":"uint32","internalType":"uint32"},{"name":"bridge","type":"address","internalType":"contract ValueTransferBridge"}],"outputs":[],"stateMutability":"nonpayable"},{"type":"function","name":"addRebalancer","inputs":[{"name":"rebalancer","type":"address","internalType":"address"}],"outputs":[],"stateMutability":"nonpayable"},{"type":"function","name":"allowedBridges","inputs":[{"name":"domain","type":"uint32","internalType":"uint32"}],"outputs":[{"name":"","type":"address[]","internalType":"address[]"}],"stateMutability":"view"},{"type":"function","name":"allowedRebalancers","inputs":[],"outputs":[{"name":"","type":"address[]","internalType":"address[]"}],"stateMutability":"view"},{"type":"function","name":"allowedRecipient","inputs":[{"name":"routerDomain","type":"uint32","internalType":"uint32"}],"outputs":[{"name":"recipient","type":"bytes32","internalType":"bytes32"}],"stateMutability":"view"},{"type":"function","name":"approveTokenForBridge","inputs":[{"name":"token","type":"address","internalType":"contract IERC20"},{"name":"bridge","type":"address","internalType":"contract ValueTransferBridge"}],"outputs":[],"stateMutability":"nonpayable"},{"type":"function","name":"balanceOf","inputs":[{"name":"_account","type":"address","internalType":"address"}],"outputs":[{"name":"","type":"uint256","internalType":"uint256"}],"stateMutability":"view"},{"type":"function","name":"changePausableController","inputs":[{"name":"newPausableController","type":"address","internalType":"address"}],"outputs":[],"stateMutability":"nonpayable"},{"type":"function","name":"destinationGas","inputs":[{"name":"destinationDomain","type":"uint32","internalType":"uint32"}],"outputs":[{"name":"gasLimit","type":"uint256","internalType":"uint256"}],"stateMutability":"view"},{"type":"function","name":"disablePausingForever","inputs":[],"outputs":[],"stateMutability":"nonpayable"},{"type":"function","name":"disabledForever","inputs":[],"outputs":[{"name":"","type":"bool","internalType":"bool"}],"stateMutability":"view"},{"type":"function","name":"domains","inputs":[],"outputs":[{"name":"","type":"uint32[]","internalType":"uint32[]"}],"stateMutability":"view"},{"type":"function","name":"enrollRemoteRouter","inputs":[{"name":"_domain","type":"uint32","internalType":"uint32"},{"name":"_router","type":"bytes32","internalType":"bytes32"}],"outputs":[],"stateMutability":"nonpayable"},{"type":"function","name":"enrollRemoteRouters","inputs":[{"name":"_domains","type":"uint32[]","internalType":"uint32[]"},{"name":"_addresses","type":"bytes32[]","internalType":"bytes32[]"}],"outputs":[],"stateMutability":"nonpayable"},{"type":"function","name":"handle","inputs":[{"name":"_origin","type":"uint32","internalType":"uint32"},{"name":"_sender","type":"bytes32","internalType":"bytes32"},{"name":"_message","type":"bytes","internalType":"bytes"}],"outputs":[],"stateMutability":"payable"},{"type":"function","name":"hook","inputs":[],"outputs":[{"name":"","type":"address","internalType":"contract IPostDispatchHook"}],"stateMutability":"view"},{"type":"function","name":"initialize","inputs":[{"name":"_hook","type":"address","internalType":"address"},{"name":"_interchainSecurityModule","type":"address","internalType":"address"},{"name":"_owner","type":"address","internalType":"address"}],"outputs":[],"stateMutability":"nonpayable"},{"type":"function","name":"interchainSecurityModule","inputs":[],"outputs":[{"name":"","type":"address","internalType":"contract IInterchainSecurityModule"}],"stateMutability":"view"},{"type":"function","name":"localDomain","inputs":[],"outputs":[{"name":"","type":"uint32","internalType":"uint32"}],"stateMutability":"view"},{"type":"function","name":"mailbox","inputs":[],"outputs":[{"name":"","type":"address","internalType":"contract IMailbox"}],"stateMutability":"view"},{"type":"function","name":"owner","inputs":[],"outputs":[{"name":"","type":"address","internalType":"address"}],"stateMutability":"view"},{"type":"function","name":"pausableController","inputs":[],"outputs":[{"name":"","type":"address","internalType":"address"}],"stateMutability":"view"},{"type":"function","name":"pause","inputs":[],"outputs":[],"stateMutability":"nonpayable"},{"type":"function","name":"paused","inputs":[],"outputs":[{"name":"","type":"bool","internalType":"bool"}],"stateMutability":"view"},{"type":"function","name":"quoteGasPayment","inputs":[{"name":"_destinationDomain","type":"uint32","internalType":"uint32"}],"outputs":[{"name":"","type":"uint256","internalType":"uint256"}],"stateMutability":"view"},{"type":"function","name":"quoteTransferRemote","inputs":[{"name":"_destination","type":"uint32","internalType":"uint32"},{"name":"_recipient","type":"bytes32","internalType":"bytes32"},{"name":"_amount","type":"uint256","internalType":"uint256"}],"outputs":[{"name":"quotes","type":"tuple[]","internalType":"struct Quote[]","components":[{"name":"token","type":"address","internalType":"address"},{"name":"amount","type":"uint256","internalType":"uint256"}]}],"stateMutability":"view"},{"type":"function","name":"rebalance","inputs":[{"name":"domain","type":"uint32","internalType":"uint32"},{"name":"amount","type":"uint256","internalType":"uint256"},{"name":"bridge","type":"address","internalType":"contract ValueTransferBridge"}],"outputs":[],"stateMutability":"payable"},{"type":"function","name":"removeBridge","inputs":[{"name":"domain","type":"uint32","internalType":"uint32"},{"name":"bridge","type":"address","internalType":"contract ValueTransferBridge"}],"outputs":[],"stateMutability":"nonpayable"},{"type":"function","name":"removeRebalancer","inputs":[{"name":"rebalancer","type":"address","internalType":"address"}],"outputs":[],"stateMutability":"nonpayable"},{"type":"function","name":"removeRecipient","inputs":[{"name":"domain","type":"uint32","internalType":"uint32"}],"outputs":[],"stateMutability":"nonpayable"},{"type":"function","name":"renounceOwnership","inputs":[],"outputs":[],"stateMutability":"nonpayable"},{"type":"function","name":"routers","inputs":[{"name":"_domain","type":"uint32","internalType":"uint32"}],"outputs":[{"name":"","type":"bytes32","internalType":"bytes32"}],"stateMutability":"view"},{"type":"function","name":"scale","inputs":[],"outputs":[{"name":"","type":"uint256","internalType":"uint256"}],"stateMutability":"view"},{"type":"function","name":"setDestinationGas","inputs":[{"name":"domain","type":"uint32","internalType":"uint32"},{"name":"gas","type":"uint256","internalType":"uint256"}],"outputs":[],"stateMutability":"nonpayable"},{"type":"function","name":"setDestinationGas","inputs":[{"name":"gasConfigs","type":"tuple[]","internalType":"struct GasRouter.GasRouterConfig[]","components":[{"name":"domain","type":"uint32","internalType":"uint32"},{"name":"gas","type":"uint256","internalType":"uint256"}]}],"outputs":[],"stateMutability":"nonpayable"},{"type":"function","name":"setHook","inputs":[{"name":"_hook","type":"address","internalType":"address"}],"outputs":[],"stateMutability":"nonpayable"},{"type":"function","name":"setInterchainSecurityModule","inputs":[{"name":"_module","type":"address","internalType":"address"}],"outputs":[],"stateMutability":"nonpayable"},{"type":"function","name":"setRecipient","inputs":[{"name":"domain","type":"uint32","internalType":"uint32"},{"name":"recipient","type":"bytes32","internalType":"bytes32"}],"outputs":[],"stateMutability":"nonpayable"},{"type":"function","name":"transferOwnership","inputs":[{"name":"newOwner","type":"address","internalType":"address"}],"outputs":[],"stateMutability":"nonpayable"},{"type":"function","name":"transferRemote","inputs":[{"name":"_destination","type":"uint32","internalType":"uint32"},{"name":"_recipient","type":"bytes32","internalType":"bytes32"},{"name":"_amountOrId","type":"uint256","internalType":"uint256"},{"name":"_hookMetadata","type":"bytes","internalType":"bytes"},{"name":"_hook","type":"address","internalType":"address"}],"outputs":[{"name":"messageId","type":"bytes32","internalType":"bytes32"}],"stateMutability":"payable"},{"type":"function","name":"transferRemote","inputs":[{"name":"_destination","type":"uint32","internalType":"uint32"},{"name":"_recipient","type":"bytes32","internalType":"bytes32"},{"name":"_amountOrId","type":"uint256","internalType":"uint256"}],"outputs":[{"name":"messageId","type":"bytes32","internalType":"bytes32"}],"stateMutability":"payable"},{"type":"function","name":"unenrollRemoteRouter","inputs":[{"name":"_domain","type":"uint32","internalType":"uint32"}],"outputs":[],"stateMutability":"nonpayable"},{"type":"function","name":"unenrollRemoteRouters","inputs":[{"name":"_domains","type":"uint32[]","internalType":"uint32[]"}],"outputs":[],"stateMutability":"nonpayable"},{"type":"function","name":"unpause","inputs":[],"outputs":[],"stateMutability":"nonpayable"},{"type":"event","name":"CollateralMoved","inputs":[{"name":"domain","type":"uint32","indexed":true,"internalType":"uint32"},{"name":"recipient","type":"bytes32","indexed":false,"internalType":"bytes32"},{"name":"amount","type":"uint256","indexed":false,"internalType":"uint256"},{"name":"rebalancer","type":"address","indexed":true,"internalType":"address"}],"anonymous":false},{"type":"event","name":"Donation","inputs":[{"name":"sender","type":"address","indexed":true,"internalType":"address"},{"name":"amount","type":"uint256","indexed":false,"internalType":"uint256"}],"anonymous":false},{"type":"event","name":"GasSet","inputs":[{"name":"domain","type":"uint32","indexed":false,"internalType":"uint32"},{"name":"gas","type":"uint256","indexed":false,"internalType":"uint256"}],"anonymous":false},{"type":"event","name":"HookSet","inputs":[{"name":"_hook","type":"address","indexed":false,"internalType":"address"}],"anonymous":false},{"type":"event","name":"Initialized","inputs":[{"name":"version","type":"uint8","indexed":false,"internalType":"uint8"}],"anonymous":false},{"type":"event","name":"IsmSet","inputs":[{"name":"_ism","type":"address","indexed":false,"internalType":"address"}],"anonymous":false},{"type":"event","name":"OwnershipTransferred","inputs":[{"name":"previousOwner","type":"address","indexed":true,"internalType":"address"},{"name":"newOwner","type":"address","indexed":true,"internalType":"address"}],"anonymous":false},{"type":"event","name":"PausableControllerChanged","inputs":[{"name":"previousPausableController","type":"address","indexed":false,"internalType":"address"},{"name":"newPausableController","type":"address","indexed":false,"internalType":"address"}],"anonymous":false},{"type":"event","name":"Paused","inputs":[{"name":"account","type":"address","indexed":false,"internalType":"address"}],"anonymous":false},{"type":"event","name":"ReceivedTransferRemote","inputs":[{"name":"origin","type":"uint32","indexed":true,"internalType":"uint32"},{"name":"recipient","type":"bytes32","indexed":true,"internalType":"bytes32"},{"name":"amount","type":"uint256","indexed":false,"internalType":"uint256"}],"anonymous":false},{"type":"event","name":"SentTransferRemote","inputs":[{"name":"destination","type":"uint32","indexed":true,"internalType":"uint32"},{"name":"recipient","type":"bytes32","indexed":true,"internalType":"bytes32"},{"name":"amount","type":"uint256","indexed":false,"internalType":"uint256"}],"anonymous":false},{"type":"event","name":"Unpaused","inputs":[{"name":"account","type":"address","indexed":false,"internalType":"address"}],"anonymous":false},{"type":"error","name":"CannotDisablePausingForeverWhenBridgePaused","inputs":[]},{"type":"error","name":"CannotSetPausableControllerToZeroAddress","inputs":[]},{"type":"error","name":"NotPausableControllerOrOwner","inputs":[{"name":"caller","type":"address","internalType":"address"}]},{"type":"error","name":"PausingDisabled","inputs":[]}],"bytecode":{"object":"0x60e060405234801561000f575f5ffd5b506040516138d03803806138d083398101604081905261002e91610177565b8181818180808080806001600160a01b0381163b6100925760405162461bcd60e51b815260206004820152601e60248201527f4d61696c626f78436c69656e743a20696e76616c6964206d61696c626f780000604482015260640160405180910390fd5b6001600160a01b03821660808190526040805163234d8e3d60e21b81529051638d3638f4916004808201926020929091908290030181865afa1580156100da573d5f5f3e3d5ffd5b505050506040513d601f19601f820116820180604052508101906100fe91906101b1565b63ffffffff1660a05261011033610126565b50505060c093909352506101db95505050505050565b603380546001600160a01b038381166001600160a01b0319831681179093556040519116919082907f8be0079c531659141344cd1fd0a4f28419497f9722a3daafe3b4186f6b6457e0905f90a35050565b5f5f60408385031215610188575f5ffd5b825160208401519092506001600160a01b03811681146101a6575f5ffd5b809150509250929050565b5f602082840312156101c1575f5ffd5b815163ffffffff811681146101d4575f5ffd5b9392505050565b60805160a05160c0516136a86102285f395f81816108d9015281816123770152612a5d01525f61067101525f818161080d01528181610cfd015281816127fb0152612ac001526136a85ff3fe6080604052600436106102e5575f3560e01c80637f5a7c7b11610186578063c3827115116100dc578063efae508a11610087578063f51e181a11610062578063f51e181a146108c8578063fa57f157146108fb578063fbaca44c1461091a575f5ffd5b8063efae508a1461086b578063f2ed8c531461088a578063f2fde38b146108a9575f5ffd5b8063d5438eae116100b7578063d5438eae146107fc578063de523cf31461082f578063e9198bf91461084c575f5ffd5b8063c382711514610797578063c6783067146107b6578063c69c8ce2146107e8575f5ffd5b80638da5cb5b1161013c578063b49c53a711610117578063b49c53a714610739578063b8ff048214610758578063c0c53b8b14610778575f5ffd5b80638da5cb5b146106a857806393c44847146106c5578063b1bd64361461071a575f5ffd5b80638456cb591161016c5780638456cb59146106205780638bd90b82146106345780638d3638f414610660575f5ffd5b80637f5a7c7b146105d657806381b4e8b41461060d575f5ffd5b806351debffc1161023b57806370e4d1b6116101f157806372be7ec3116101cc57806372be7ec31461056c578063775313a11461058057806377e2dc7a146105ab575f5ffd5b806370e4d1b61461051a578063715018a61461053957806371a15b381461054d575f5ffd5b80635c975abb116102215780635c975abb146104bd5780636a99c333146104e057806370a08231146104f3575f5ffd5b806351debffc1461049757806356d5d475146104aa575f5ffd5b80633dfd38731161029b578063440df4f411610276578063440df4f41461043857806349d462ef146104595780634e38a81d14610478575f5ffd5b80633dfd3873146103e65780633f4ba83a1461040557806343bc4b9a14610419575f5ffd5b80631ba83149116102cb5780631ba83149146103655780632c2d80891461039a5780632ead72f6146103b9575f5ffd5b80630c979919146103255780630e72cc0614610346575f5ffd5b366103215760405134815233907f5d8bc849764969eb1bcc6d0a2f55999d0167c1ccec240a4f39cf664ca9c4148e9060200160405180910390a2005b5f5ffd5b348015610330575f5ffd5b5061034461033f366004612e64565b610939565b005b348015610351575f5ffd5b50610344610360366004612e64565b610950565b348015610370575f5ffd5b5061038461037f366004612e97565b610a5d565b6040516103919190612eb0565b60405180910390f35b3480156103a5575f5ffd5b506103446103b4366004612efb565b610a83565b3480156103c4575f5ffd5b506103d86103d3366004612e97565b610aad565b604051908152602001610391565b3480156103f1575f5ffd5b50610344610400366004612e64565b610acb565b348015610410575f5ffd5b50610344610bcb565b348015610424575f5ffd5b50610344610433366004612e64565b610c3e565b348015610443575f5ffd5b5061044c610c51565b6040516103919190612f23565b348015610464575f5ffd5b50610344610473366004612efb565b610c62565b348015610483575f5ffd5b50610344610492366004612f60565b610c74565b6103d86104a5366004612fd3565b610ca2565b6103446104b8366004613048565b610cf2565b3480156104c8575f5ffd5b5060cf5460ff165b6040519015158152602001610391565b6103446104ee36600461309e565b610e24565b3480156104fe575f5ffd5b506103d861050d366004612e64565b6001600160a01b03163190565b348015610525575f5ffd5b50610344610534366004612e64565b610f7a565b348015610544575f5ffd5b50610344610fce565b348015610558575f5ffd5b5061034461056736600461311c565b610fdf565b348015610577575f5ffd5b50610344611039565b34801561058b575f5ffd5b506103d861059a366004612e97565b60ca6020525f908152604090205481565b3480156105b6575f5ffd5b506103d86105c5366004612e97565b60cb6020525f908152604090205481565b3480156105e1575f5ffd5b506065546105f5906001600160a01b031681565b6040516001600160a01b039091168152602001610391565b6103d861061b36600461315b565b611180565b34801561062b575f5ffd5b5061034461118d565b34801561063f575f5ffd5b5061065361064e36600461315b565b611254565b604051610391919061318b565b34801561066b575f5ffd5b506106937f000000000000000000000000000000000000000000000000000000000000000081565b60405163ffffffff9091168152602001610391565b3480156106b3575f5ffd5b506033546001600160a01b03166105f5565b3480156106d0575f5ffd5b5061070d6040518060400160405280600581526020017f382e312e3100000000000000000000000000000000000000000000000000000081525081565b6040516103919190613242565b348015610725575f5ffd5b50610344610734366004613254565b6112ea565b348015610744575f5ffd5b50610344610753366004612efb565b61135a565b348015610763575f5ffd5b50610101546105f5906001600160a01b031681565b348015610783575f5ffd5b506103446107923660046132c5565b61136c565b3480156107a2575f5ffd5b506103446107b1366004612e97565b6114e3565b3480156107c1575f5ffd5b50610101546104d09074010000000000000000000000000000000000000000900460ff1681565b3480156107f3575f5ffd5b50610384611501565b348015610807575f5ffd5b506105f57f000000000000000000000000000000000000000000000000000000000000000081565b34801561083a575f5ffd5b506066546001600160a01b03166105f5565b348015610857575f5ffd5b50610344610866366004613302565b61150d565b348015610876575f5ffd5b50610344610885366004612e97565b6115d1565b348015610895575f5ffd5b506103d86108a4366004612e97565b6115e2565b3480156108b4575f5ffd5b506103446108c3366004612e64565b6115ef565b3480156108d3575f5ffd5b506103d87f000000000000000000000000000000000000000000000000000000000000000081565b348015610906575f5ffd5b50610344610915366004613362565b61167c565b348015610925575f5ffd5b50610344610934366004612f60565b611699565b6109416116cc565b61094c60cd82611726565b5050565b806001600160a01b0381163b15158061097057506001600160a01b038116155b6109e75760405162461bcd60e51b815260206004820152602760248201527f4d61696c626f78436c69656e743a20696e76616c696420636f6e74726163742060448201527f73657474696e670000000000000000000000000000000000000000000000000060648201526084015b60405180910390fd5b6109ef6116cc565b606680547fffffffffffffffffffffffff0000000000000000000000000000000000000000166001600160a01b0384169081179091556040519081527fc47cbcc588c67679e52261c45cc315e56562f8d0ccaba16facb9093ff9498799906020015b60405180910390a15050565b63ffffffff81165f90815260cc60205260409020606090610a7d90611741565b92915050565b610a8b6116cc565b610a948261174d565b5063ffffffff9091165f90815260cb6020526040902055565b5f80610ac3609763ffffffff8086169061179716565b949350505050565b806001600160a01b0381163b151580610aeb57506001600160a01b038116155b610b5d5760405162461bcd60e51b815260206004820152602760248201527f4d61696c626f78436c69656e743a20696e76616c696420636f6e74726163742060448201527f73657474696e670000000000000000000000000000000000000000000000000060648201526084016109de565b610b656116cc565b606580547fffffffffffffffffffffffff0000000000000000000000000000000000000000166001600160a01b0384169081179091556040519081527f4eab7b127c764308788622363ad3e9532de3dfba7845bd4f84c125a22544255a90602001610a51565b610101546001600160a01b0316331480610bef57506033546001600160a01b031633145b3390610c33576040517f994646570000000000000000000000000000000000000000000000000000000081526001600160a01b0390911660048201526024016109de565b50610c3c6117af565b565b610c466116cc565b61094c60cd8261181f565b6060610c5d6097611833565b905090565b610c6a6116cc565b61094c82826118e2565b610c7c6116cc565b63ffffffff8083165f90815260cc60205260409020610c9d91839061181f16565b505050565b5f610ce78787873488888080601f0160208091040260200160405190810160405280939291908181526020018383808284375f920191909152508a925061192f915050565b979650505050505050565b336001600160a01b037f00000000000000000000000000000000000000000000000000000000000000001614610d905760405162461bcd60e51b815260206004820152602160248201527f4d61696c626f78436c69656e743a2073656e646572206e6f74206d61696c626f60448201527f780000000000000000000000000000000000000000000000000000000000000060648201526084016109de565b5f610d9a8561174d565b9050838114610e115760405162461bcd60e51b815260206004820152602560248201527f456e726f6c6c656420726f7574657220646f6573206e6f74206d61746368207360448201527f656e64657200000000000000000000000000000000000000000000000000000060648201526084016109de565b610e1d85858585611946565b5050505050565b610e2f60cd336119c5565b610e7b5760405162461bcd60e51b815260206004820152601460248201527f4d43523a204f6e6c7920526562616c616e63657200000000000000000000000060448201526064016109de565b63ffffffff8084165f90815260cc602052604090208491839190610ea390829084906119c516565b610eef5760405162461bcd60e51b815260206004820152601760248201527f4d43523a204e6f7420616c6c6f7765642062726964676500000000000000000060448201526064016109de565b63ffffffff86165f90815260cb6020526040902054339080610f1757610f148861174d565b90505b610f23888289896119e6565b60408051828152602081018990526001600160a01b0384169163ffffffff8b16917fb1e1b117ddf429b1b8a359fe0e978f0ae191c0f70e0babfea7acaad1b0ee8a2d91015b60405180910390a35050505050505050565b610f826116cc565b6001600160a01b038116610fc2576040517f6de69dd600000000000000000000000000000000000000000000000000000000815260040160405180910390fd5b610fcb81611b00565b50565b610fd66116cc565b610c3c5f611bc9565b610fe76116cc565b805f5b81811015611033576110218484838181106110075761100761337e565b905060200201602081019061101c9190612e97565b611c32565b61102c6001826133d8565b9050610fea565b50505050565b610101546001600160a01b031633148061105d57506033546001600160a01b031633145b33906110a1576040517f994646570000000000000000000000000000000000000000000000000000000081526001600160a01b0390911660048201526024016109de565b5060cf5460ff16156110df576040517f23746fed00000000000000000000000000000000000000000000000000000000815260040160405180910390fd5b6101015474010000000000000000000000000000000000000000900460ff1615611135576040517f44d69d6400000000000000000000000000000000000000000000000000000000815260040160405180910390fd5b61113e5f611b00565b61010180547fffffffffffffffffffffff00ffffffffffffffffffffffffffffffffffffffff1674010000000000000000000000000000000000000000179055565b5f610ac384848434611c65565b610101546001600160a01b03163314806111b157506033546001600160a01b031633145b33906111f5576040517f994646570000000000000000000000000000000000000000000000000000000081526001600160a01b0390911660048201526024016109de565b506101015474010000000000000000000000000000000000000000900460ff161561124c576040517f44d69d6400000000000000000000000000000000000000000000000000000000815260040160405180910390fd5b610c3c611c90565b604080516001808252818301909252606091816020015b604080518082019091525f808252602082015281526020019060019003908161126b57905050905060405180604001604052805f6001600160a01b03168152602001836112b9878787611ceb565b6112c391906133d8565b815250815f815181106112d8576112d861337e565b60200260200101819052509392505050565b6112f26116cc565b5f5b81811015610c9d576113488383838181106113115761131161337e565b6113279260206040909202019081019150612e97565b8484848181106113395761133961337e565b905060400201602001356118e2565b6113536001826133d8565b90506112f4565b6113626116cc565b61094c8282611d26565b5f54610100900460ff161580801561138a57505f54600160ff909116105b806113a35750303b1580156113a357505f5460ff166001145b6114155760405162461bcd60e51b815260206004820152602e60248201527f496e697469616c697a61626c653a20636f6e747261637420697320616c72656160448201527f647920696e697469616c697a656400000000000000000000000000000000000060648201526084016109de565b5f80547fffffffffffffffffffffffffffffffffffffffffffffffffffffffffffffff001660011790558015611471575f80547fffffffffffffffffffffffffffffffffffffffffffffffffffffffffffff00ff166101001790555b61147c848484611d3c565b8015611033575f80547fffffffffffffffffffffffffffffffffffffffffffffffffffffffffffff00ff169055604051600181527f7f26b83ff96e1f2b6a682f133852f6798a09c465da95921460cefb38474024989060200160405180910390a150505050565b6114eb6116cc565b63ffffffff165f90815260cb6020526040812055565b6060610c5d60cd611741565b6115156116cc565b8281146115645760405162461bcd60e51b815260206004820152600760248201527f216c656e6774680000000000000000000000000000000000000000000000000060448201526064016109de565b825f5b818110156115c9576115b78686838181106115845761158461337e565b90506020020160208101906115999190612e97565b8585848181106115ab576115ab61337e565b90506020020135611d26565b6115c26001826133d8565b9050611567565b505050505050565b6115d96116cc565b610fcb81611c32565b5f610a7d82825f19611ceb565b6115f76116cc565b6001600160a01b0381166116735760405162461bcd60e51b815260206004820152602660248201527f4f776e61626c653a206e6577206f776e657220697320746865207a65726f206160448201527f646472657373000000000000000000000000000000000000000000000000000060648201526084016109de565b610fcb81611bc9565b6116846116cc565b61094c6001600160a01b038316825f19611ddb565b6116a16116cc565b6116aa8261174d565b5063ffffffff8083165f90815260cc60205260409020610c9d91839061172616565b6033546001600160a01b03163314610c3c5760405162461bcd60e51b815260206004820181905260248201527f4f776e61626c653a2063616c6c6572206973206e6f7420746865206f776e657260448201526064016109de565b5f61173a836001600160a01b038416611f5e565b9392505050565b60605f61173a83611faa565b5f8080611764609763ffffffff8087169061179716565b915091508115611775579392505050565b61177e84612003565b60405162461bcd60e51b81526004016109de9190613242565b5f806117a3848461203a565b915091505b9250929050565b6117b7612072565b60cf80547fffffffffffffffffffffffffffffffffffffffffffffffffffffffffffffff001690557f5db9ee0a495bf2e6ff9c91a7834c1ba4fdd244a5e8aa4e537bd38aeae4b073aa335b6040516001600160a01b03909116815260200160405180910390a1565b5f61173a836001600160a01b0384166120c4565b60605f61183f836121a7565b9050805167ffffffffffffffff81111561185b5761185b6133eb565b604051908082528060200260200182016040528015611884578160200160208202803683370190505b5091505f5b81518110156118db578181815181106118a4576118a461337e565b60200260200101518382815181106118be576118be61337e565b63ffffffff90921660209283029190910190910152600101611889565b5050919050565b63ffffffff82165f81815260ca6020908152604091829020849055815192835282018390527fc3de732a98b24a2b5c6f67e8a7fb057ffc14046b83968a2c73e4148d2fba978b9101610a51565b5f611938612235565b610ce7878787878787612288565b5f61195183836122aa565b90505f61195e84846122d2565b9050365f61196c86866122e1565b9150915061198c61197c856122f0565b61198585612371565b848461239c565b838863ffffffff167fba20947a325f450d232530e5f5fce293e7963499d5309a07cee84a269f2f15a685604051610f6891815260200190565b6001600160a01b0381165f908152600183016020526040812054151561173a565b5f6119f183346133d8565b905080471015611a695760405162461bcd60e51b815260206004820152602860248201527f4e61746976653a20726562616c616e636520616d6f756e74206578636565647360448201527f2062616c616e636500000000000000000000000000000000000000000000000060648201526084016109de565b6040517f81b4e8b400000000000000000000000000000000000000000000000000000000815263ffffffff8616600482015260248101859052604481018490526001600160a01b038316906381b4e8b490839060640160206040518083038185885af1158015611adb573d5f5f3e3d5ffd5b50505050506040513d601f19601f820116820180604052508101906115c99190613418565b6101015474010000000000000000000000000000000000000000900460ff1615611b56576040517f44d69d6400000000000000000000000000000000000000000000000000000000815260040160405180910390fd5b61010180546001600160a01b038381167fffffffffffffffffffffffff000000000000000000000000000000000000000083168117909355604080519190921680825260208201939093527fa164ff8b1561f3c14638dda565744fb35532839588e627d0d02bf3016ab386a39101610a51565b603380546001600160a01b038381167fffffffffffffffffffffffff0000000000000000000000000000000000000000831681179093556040519116919082907f8be0079c531659141344cd1fd0a4f28419497f9722a3daafe3b4186f6b6457e0905f90a35050565b63ffffffff81165f90815260cb6020908152604080832083905560cc9091529020611c5c906123b0565b610fcb81612400565b5f611c8785858585611c768a61243b565b6065546001600160a01b031661192f565b95945050505050565b611c98612235565b60cf80547fffffffffffffffffffffffffffffffffffffffffffffffffffffffffffffff001660011790557f62e78cea01bee320cd4e420270b5ea74000d11b0c9f74754ebdbfc544b05a2586118023390565b604080516020810184905280820183905281518082038301815260609091019091525f90610ac39085906065546001600160a01b031661245c565b61094c609763ffffffff80851690849061247116565b5f54610100900460ff16611db85760405162461bcd60e51b815260206004820152602b60248201527f496e697469616c697a61626c653a20636f6e7472616374206973206e6f74206960448201527f6e697469616c697a696e6700000000000000000000000000000000000000000060648201526084016109de565b611dc061247c565b611dc983610acb565b611dd282610950565b610c9d81611bc9565b801580611e6c57506040517fdd62ed3e0000000000000000000000000000000000000000000000000000000081523060048201526001600160a01b03838116602483015284169063dd62ed3e90604401602060405180830381865afa158015611e46573d5f5f3e3d5ffd5b505050506040513d601f19601f82011682018060405250810190611e6a9190613418565b155b611ede5760405162461bcd60e51b815260206004820152603660248201527f5361666545524332303a20617070726f76652066726f6d206e6f6e2d7a65726f60448201527f20746f206e6f6e2d7a65726f20616c6c6f77616e63650000000000000000000060648201526084016109de565b604080516001600160a01b038416602482015260448082018490528251808303909101815260649091019091526020810180517bffffffffffffffffffffffffffffffffffffffffffffffffffffffff167f095ea7b300000000000000000000000000000000000000000000000000000000179052610c9d908490612500565b5f818152600183016020526040812054611fa357508154600181810184555f848152602080822090930184905584548482528286019093526040902091909155610a7d565b505f610a7d565b6060815f01805480602002602001604051908101604052809291908181526020018280548015611ff757602002820191905f5260205f20905b815481526020019060010190808311611fe3575b50505050509050919050565b60606120148263ffffffff166125e6565b604051602001612024919061342f565b6040516020818303038152906040529050919050565b5f8181526002830160205260408120548190806120675761205b8585612683565b92505f91506117a89050565b6001925090506117a8565b60cf5460ff16610c3c5760405162461bcd60e51b815260206004820152601460248201527f5061757361626c653a206e6f742070617573656400000000000000000000000060448201526064016109de565b5f818152600183016020526040812054801561219e575f6120e6600183613473565b85549091505f906120f990600190613473565b9050818114612158575f865f0182815481106121175761211761337e565b905f5260205f200154905080875f0184815481106121375761213761337e565b5f918252602080832090910192909255918252600188019052604090208390555b855486908061216957612169613486565b600190038181905f5260205f20015f90559055856001015f8681526020019081526020015f205f905560019350505050610a7d565b5f915050610a7d565b60605f6121b38361268e565b90508067ffffffffffffffff8111156121ce576121ce6133eb565b6040519080825280602002602001820160405280156121f7578160200160208202803683370190505b5091505f5b818110156118db5761220e8482612698565b5f1c8382815181106122225761222261337e565b60209081029190910101526001016121fc565b60cf5460ff1615610c3c5760405162461bcd60e51b815260206004820152601060248201527f5061757361626c653a207061757365640000000000000000000000000000000060448201526064016109de565b5f612292856126a3565b50610ce78787876122a38134613473565b8787612708565b5f8281836122b98260206134b3565b60ff16926122c9939291906134cc565b61173a916134f3565b5f826020836122b982806134b3565b365f6117a383604081876134cc565b5f6001600160a01b0382111561236d5760405162461bcd60e51b8152602060048201526024808201527f5479706543617374733a2062797465733332546f41646472657373206f76657260448201527f666c6f770000000000000000000000000000000000000000000000000000000060648201526084016109de565b5090565b5f610a7d7f000000000000000000000000000000000000000000000000000000000000000083613510565b6123a4612235565b6110338484848461278c565b80545f5b818110156123f957826001015f845f0183815481106123d5576123d561337e565b905f5260205f20015481526020019081526020015f205f90558060010190506123b4565b50505f9055565b612414609763ffffffff8084169061279616565b61241d82612003565b9061094c5760405162461bcd60e51b81526004016109de9190613242565b63ffffffff81165f90815260ca6020526040902054606090610a7d906127a1565b5f610ac3848461246b8761243b565b856127bd565b611033838383612881565b5f54610100900460ff166124f85760405162461bcd60e51b815260206004820152602b60248201527f496e697469616c697a61626c653a20636f6e7472616374206973206e6f74206960448201527f6e697469616c697a696e6700000000000000000000000000000000000000000060648201526084016109de565b610c3c61289d565b5f612554826040518060400160405280602081526020017f5361666545524332303a206c6f772d6c6576656c2063616c6c206661696c6564815250856001600160a01b03166129229092919063ffffffff16565b905080515f14806125745750808060200190518101906125749190613548565b610c9d5760405162461bcd60e51b815260206004820152602a60248201527f5361666545524332303a204552433230206f7065726174696f6e20646964206e60448201527f6f7420737563636565640000000000000000000000000000000000000000000060648201526084016109de565b60605f6125f283612930565b60010190505f8167ffffffffffffffff811115612611576126116133eb565b6040519080825280601f01601f19166020018201604052801561263b576020820181803683370190505b5090508181016020015b5f19017f3031323334353637383961626364656600000000000000000000000000000000600a86061a8153600a850494508461264557509392505050565b5f61173a8383612a11565b5f610a7d82612a28565b5f61173a8383612a31565b6060813410156126f55760405162461bcd60e51b815260206004820181905260248201527f4e61746976653a20616d6f756e742065786365656473206d73672e76616c756560448201526064016109de565b505060408051602081019091525f815290565b5f5f612713866126a3565b90505f61271f87612a57565b90505f61272d898385612a82565b905061273c8a88838989612ab1565b9350888a63ffffffff167fd229aacb94204188fe8042965fa6b269c62dc5818b21238779ab64bdd17efeec8460405161277791815260200190565b60405180910390a35050509695505050505050565b6110338484612b54565b5f61173a8383612c69565b6060610a7d5f833360405180602001604052805f815250612c85565b5f5f6127c88661174d565b6040517f81d2ea950000000000000000000000000000000000000000000000000000000081529091506001600160a01b037f000000000000000000000000000000000000000000000000000000000000000016906381d2ea959061283890899085908a908a908a90600401613567565b602060405180830381865afa158015612853573d5f5f3e3d5ffd5b505050506040513d601f19601f820116820180604052508101906128779190613418565b9695505050505050565b5f8281526002840160205260408120829055610ac38484612cba565b5f54610100900460ff166129195760405162461bcd60e51b815260206004820152602b60248201527f496e697469616c697a61626c653a20636f6e7472616374206973206e6f74206960448201527f6e697469616c697a696e6700000000000000000000000000000000000000000060648201526084016109de565b610c3c33611bc9565b6060610ac384845f85612cc5565b5f807a184f03e93ff9f4daa797ed6e38ed64bf6a1f0100000000000000008310612978577a184f03e93ff9f4daa797ed6e38ed64bf6a1f010000000000000000830492506040015b6d04ee2d6d415b85acef810000000083106129a4576d04ee2d6d415b85acef8100000000830492506020015b662386f26fc1000083106129c257662386f26fc10000830492506010015b6305f5e10083106129da576305f5e100830492506008015b61271083106129ee57612710830492506004015b60648310612a00576064830492506002015b600a8310610a7d5760010192915050565b5f818152600183016020526040812054151561173a565b5f610a7d825490565b5f825f018281548110612a4657612a4661337e565b905f5260205f200154905092915050565b5f610a7d7f0000000000000000000000000000000000000000000000000000000000000000836135b9565b6060838383604051602001612a99939291906135d0565b60405160208183030381529060405290509392505050565b5f5f612abc8761174d565b90507f00000000000000000000000000000000000000000000000000000000000000006001600160a01b03166310b83dc08789848989896040518763ffffffff1660e01b8152600401612b13959493929190613567565b60206040518083038185885af1158015612b2f573d5f5f3e3d5ffd5b50505050506040513d601f19601f82011682018060405250810190610ce79190613418565b80471015612ba45760405162461bcd60e51b815260206004820152601d60248201527f416464726573733a20696e73756666696369656e742062616c616e636500000060448201526064016109de565b5f826001600160a01b0316826040515f6040518083038185875af1925050503d805f8114612bed576040519150601f19603f3d011682016040523d82523d5f602084013e612bf2565b606091505b5050905080610c9d5760405162461bcd60e51b815260206004820152603a60248201527f416464726573733a20756e61626c6520746f2073656e642076616c75652c207260448201527f6563697069656e74206d6179206861766520726576657274656400000000000060648201526084016109de565b5f818152600283016020526040812081905561173a8383612da8565b6060600185858585604051602001612ca19594939291906135fc565b6040516020818303038152906040529050949350505050565b5f61173a8383611f5e565b606082471015612d3d5760405162461bcd60e51b815260206004820152602660248201527f416464726573733a20696e73756666696369656e742062616c616e636520666f60448201527f722063616c6c000000000000000000000000000000000000000000000000000060648201526084016109de565b5f5f866001600160a01b03168587604051612d589190613680565b5f6040518083038185875af1925050503d805f8114612d92576040519150601f19603f3d011682016040523d82523d5f602084013e612d97565b606091505b5091509150610ce787838387612db3565b5f61173a83836120c4565b60608315612e215782515f03612e1a576001600160a01b0385163b612e1a5760405162461bcd60e51b815260206004820152601d60248201527f416464726573733a2063616c6c20746f206e6f6e2d636f6e747261637400000060448201526064016109de565b5081610ac3565b610ac38383815115612e365781518083602001fd5b8060405162461bcd60e51b81526004016109de9190613242565b6001600160a01b0381168114610fcb575f5ffd5b5f60208284031215612e74575f5ffd5b813561173a81612e50565b803563ffffffff81168114612e92575f5ffd5b919050565b5f60208284031215612ea7575f5ffd5b61173a82612e7f565b602080825282518282018190525f918401906040840190835b81811015612ef05783516001600160a01b0316835260209384019390920191600101612ec9565b509095945050505050565b5f5f60408385031215612f0c575f5ffd5b612f1583612e7f565b946020939093013593505050565b602080825282518282018190525f918401906040840190835b81811015612ef057835163ffffffff16835260209384019390920191600101612f3c565b5f5f60408385031215612f71575f5ffd5b612f7a83612e7f565b91506020830135612f8a81612e50565b809150509250929050565b5f5f83601f840112612fa5575f5ffd5b50813567ffffffffffffffff811115612fbc575f5ffd5b6020830191508360208285010111156117a8575f5ffd5b5f5f5f5f5f5f60a08789031215612fe8575f5ffd5b612ff187612e7f565b95506020870135945060408701359350606087013567ffffffffffffffff81111561301a575f5ffd5b61302689828a01612f95565b909450925050608087013561303a81612e50565b809150509295509295509295565b5f5f5f5f6060858703121561305b575f5ffd5b61306485612e7f565b935060208501359250604085013567ffffffffffffffff811115613086575f5ffd5b61309287828801612f95565b95989497509550505050565b5f5f5f606084860312156130b0575f5ffd5b6130b984612e7f565b92506020840135915060408401356130d081612e50565b809150509250925092565b5f5f83601f8401126130eb575f5ffd5b50813567ffffffffffffffff811115613102575f5ffd5b6020830191508360208260051b85010111156117a8575f5ffd5b5f5f6020838503121561312d575f5ffd5b823567ffffffffffffffff811115613143575f5ffd5b61314f858286016130db565b90969095509350505050565b5f5f5f6060848603121561316d575f5ffd5b61317684612e7f565b95602085013595506040909401359392505050565b602080825282518282018190525f918401906040840190835b81811015612ef057835180516001600160a01b0316845260209081015181850152909301926040909201916001016131a4565b5f5b838110156131f15781810151838201526020016131d9565b50505f910152565b5f81518084526132108160208601602086016131d7565b601f017fffffffffffffffffffffffffffffffffffffffffffffffffffffffffffffffe0169290920160200192915050565b602081525f61173a60208301846131f9565b5f5f60208385031215613265575f5ffd5b823567ffffffffffffffff81111561327b575f5ffd5b8301601f8101851361328b575f5ffd5b803567ffffffffffffffff8111156132a1575f5ffd5b8560208260061b84010111156132b5575f5ffd5b6020919091019590945092505050565b5f5f5f606084860312156132d7575f5ffd5b83356132e281612e50565b925060208401356132f281612e50565b915060408401356130d081612e50565b5f5f5f5f60408587031215613315575f5ffd5b843567ffffffffffffffff81111561332b575f5ffd5b613337878288016130db565b909550935050602085013567ffffffffffffffff811115613356575f5ffd5b613092878288016130db565b5f5f60408385031215613373575f5ffd5b8235612f7a81612e50565b7f4e487b71000000000000000000000000000000000000000000000000000000005f52603260045260245ffd5b7f4e487b71000000000000000000000000000000000000000000000000000000005f52601160045260245ffd5b80820180821115610a7d57610a7d6133ab565b7f4e487b71000000000000000000000000000000000000000000000000000000005f52604160045260245ffd5b5f60208284031215613428575f5ffd5b5051919050565b7f4e6f20726f7574657220656e726f6c6c656420666f7220646f6d61696e3a200081525f825161346681601f8501602087016131d7565b91909101601f0192915050565b81810381811115610a7d57610a7d6133ab565b7f4e487b71000000000000000000000000000000000000000000000000000000005f52603160045260245ffd5b60ff8181168382160190811115610a7d57610a7d6133ab565b5f5f858511156134da575f5ffd5b838611156134e6575f5ffd5b5050820193919092039150565b80356020831015610a7d575f19602084900360031b1b1692915050565b5f82613543577f4e487b71000000000000000000000000000000000000000000000000000000005f52601260045260245ffd5b500490565b5f60208284031215613558575f5ffd5b8151801515811461173a575f5ffd5b63ffffffff8616815284602082015260a060408201525f61358b60a08301866131f9565b828103606084015261359d81866131f9565b9150506001600160a01b03831660808301529695505050505050565b8082028115828204841417610a7d57610a7d6133ab565b8381528260208201525f82516135ed8160408501602087016131d7565b91909101604001949350505050565b7fffff0000000000000000000000000000000000000000000000000000000000008660f01b1681528460028201528360228201527fffffffffffffffffffffffffffffffffffffffff0000000000000000000000008360601b1660428201525f825161366f8160568501602087016131d7565b919091016056019695505050505050565b5f82516136918184602087016131d7565b919091019291505056fea164736f6c634300081b000a","linkReferences":{}},"methodIdentifiers":{"PACKAGE_VERSION()":"93c44847","addBridge(uint32,address)":"fbaca44c","addRebalancer(address)":"0c979919","allowedBridges(uint32)":"1ba83149","allowedRebalancers()":"c69c8ce2","allowedRecipient(uint32)":"77e2dc7a","approveTokenForBridge(address,address)":"fa57f157","balanceOf(address)":"70a08231","changePausableController(address)":"70e4d1b6","destinationGas(uint32)":"775313a1","disablePausingForever()":"72be7ec3","disabledForever()":"c6783067","domains()":"440df4f4","enrollRemoteRouter(uint32,bytes32)":"b49c53a7","enrollRemoteRouters(uint32[],bytes32[])":"e9198bf9","handle(uint32,bytes32,bytes)":"56d5d475","hook()":"7f5a7c7b","initialize(address,address,address)":"c0c53b8b","interchainSecurityModule()":"de523cf3","localDomain()":"8d3638f4","mailbox()":"d5438eae","owner()":"8da5cb5b","pausableController()":"b8ff0482","pause()":"8456cb59","paused()":"5c975abb","quoteGasPayment(uint32)":"f2ed8c53","quoteTransferRemote(uint32,bytes32,uint256)":"8bd90b82","rebalance(uint32,uint256,address)":"6a99c333","removeBridge(uint32,address)":"4e38a81d","removeRebalancer(address)":"43bc4b9a","removeRecipient(uint32)":"c3827115","renounceOwnership()":"715018a6","routers(uint32)":"2ead72f6","scale()":"f51e181a","setDestinationGas((uint32,uint256)[])":"b1bd6436","setDestinationGas(uint32,uint256)":"49d462ef","setHook(address)":"3dfd3873","setInterchainSecurityModule(address)":"0e72cc06","setRecipient(uint32,bytes32)":"2c2d8089","transferOwnership(address)":"f2fde38b","transferRemote(uint32,bytes32,uint256)":"81b4e8b4","transferRemote(uint32,bytes32,uint256,bytes,address)":"51debffc","unenrollRemoteRouter(uint32)":"efae508a","unenrollRemoteRouters(uint32[])":"71a15b38","unpause()":"3f4ba83a"},"id":124}